:100000000BC225C224C223C222C221C220C21FC2E7
:100010001EC21DC27EC21BC21BC219C218C200046E
:1000200009101821292F32312C231A110A05010039
:1000300000021D517B82683F18020101010101018C
:10004000040F1A242E37424F5B666D7379838E98A6
:100050009B978D85838790999E9E9A97969594906D
:100060008B888A919BA1A099908A8B91989C9A9455
:100070008D8A8C9196999998989A9A968E86818471
:100080008E9CA8AAA192837975747473716E6D6A3F
:10009000655C50433A34312E2B27211B16120E0B70
:1000A0000705030101000100011F597E77552A064B
:1000B000010101010101081625334048505C6C7AAA
:1000C0007F7A757C8FA3A79B8B878E96968D838175
:1000D000858B8F92959896908A8A91969389848938
:1000E00099A6A79C94959CA19C938D91989D9C9A70
:1000F0009CA1A1988C8583827C72696667655D523C
:100100004A443F372E26201D19140F0B08060402FF
:10011000010100000219467592906F3D1201010124
:10012000010101010108121C27323C454E555C6358
:10013000696F767E868E959B9FA1A09C98928B86F8
:10014000817E7D7E81868C949BA2A8ABACABA8A35C
:100150009E99959290909294979A9D9E9E9D9A9624
:10016000918D8986858486888B8F93959696938FBB
:100170008A85807B7673716F6D6C6966625C564EA2
:10018000463F37302A25211D191613100D0A070581
:10019000030201010000011B486D79683D11010156
:1001A00001010101010B1522303C464D566373805D
:1001B000878786888D908F8B8A8D93948E837B7EA4
:1001C0008A99A4A6A19C9A9A9997969BA3A9A69866
:1001D000887E808B979C99928C88837B736E6E70DF
:1001E0006E645649413E3C3A342E28231F19140FA1
:1001F0000B0806040201010000011A4974837350C0
:10020000270801010101010101060F1A242F3A46B6
:10021000525B62666A6F7783909A9D99908986890E
:10022000929A9E9C958D898A8F979D9E9B97949676
:100230009A9EA09E99949091939696928C85828393
:10024000878C8F908E8D8D9095999C9D9D9DA0A45F
:10025000A7A7A199918E8F959A9B95897C737074AD
:100260007B8080796E635B58585957534B423932C3
:100270002C26221D1914110D090704030101000188
:100280000002245E82794F1B01010101010105106A
:100290001E2D3B47525E6B7782898E93979A999574
:1002A000908D8D8F8F8C86838791A0ABACA3968D1C
:1002B0008C919798938A8688939FA5A2988C848125
:1002C0008384837F7B7774706960564D453E362DFD
:1002D000261F1B17130E0A06040201010000022A42
:1002E0006379602A0301010101010C19293C4D5673
:1002F0005B647688908F8D92999B99989B9A948D48
:100300008E989F9A8E888D98998F847E7C786F6561
:100310005C53483B312B261E150F0B0805030101CA
:100320000000000103070F1F3F7FFF4A6172206F2B
:10033000662046697265666C6965730A446573690F
:10034000676E20616E6420496D706C656D656E74BA
:100350006174696F6E2062792058616E64657220E5
:10036000487564736F6E20286A61724073796E6F8E
:10037000707469632E6F7267290A49646561206130
:100380006E6420496E737069726174696F6E206269
:1003900079204B61796F626920546965726E657965
:1003A0000A5370656369616C207468616E6B7320B9
:1003B000746F204B6174696520486F726E20666FA0
:1003C000722067657474696E67206D6520746F2094
:1003D0007468696E6B2061626F757420656C65630B
:1003E00074726F6E69637300245265766973696F06
:1003F0006E3A20312E343120242024446174653A31
:1004000020323030372F30312F31302030343A33F2
:10041000353A35352024000011241FBECFE5D1E048
:10042000DEBFCDBF10E0A0E6B0E0EEE4FBE002C02E
:1004300005900D92AE3AB107D9F710E0AEEAB0E000
:1004400001C01D92A53CB107E1F700D37EC3D8CD12
:100450001F920F920FB60F9211248F939F938DEEE0
:1004600088BB80B58E7F80BD80E287B93699FECF8C
:1004700080EC86B93699FECF85B1379890B59160FA
:1004800090BD9DEC98BB873E20F48091BA008823F4
:1004900071F08091AC0081508093AC008F5F61F46B
:1004A0008AE08093AC0081E08093BF0005C08AE0C1
:1004B0008093AC001092BF00899B0AC08091BB0062
:1004C00081508093BB008091BB00882309F48998F8
:1004D0008B9B0AC08091C00081508093C0008091A6
:1004E000C000882309F48B988C990CC08091A300DC
:1004F0009091A40001979093A4008093A300892B6E
:1005000009F48C9A9F918F910F900FBE0F901F90BE
:1005100018951F920F920FB60F9211248F9380910E
:10052000C200882309F069C088BA8091B800815060
:100530008093B8008F5F09F046C0889B0FC08E9BE8
:1005400005C08091BC00282E8E9811C02224809175
:10055000BB00882361F08898899A09C0899907C0EF
:100560008E9B05C08091BC00282E8E98889A8A9B0D
:100570000FC08F9B05C08091BE00382E8F9811C090
:1005800033248091C000882361F08A988B9A09C037
:100590008B9907C08F9B05C08091BE00382E8F9825
:1005A0008A9A889944248A995524889902C08A9BFA
:1005B00008C08091C4000F2EFDEC8F2EF02D882AEC
:1005C00002C08DEC882E889B0BC0062C27FA420CAB
:1005D00013F016F004C01EF00094802001C08028A3
:1005E0008A9B0BC0072C37FA530C13F016F004C08B
:1005F0001EF00094802001C080288F910F900FBEC4
:100600000F901F9018950F931F93CF93DF934091F6
:10061000800050918100F89482E08093BB00899A19
:100620007894FA0160817181CAEAD0E08881809370
:10063000C400A7EAB0E09C9120E030E01CC0FA01C1
:1006400002811381020F131FF80184918093BC0073
:100650008E9A0DC081B5806481BD85B7877E85BFC8
:1006600085B7806285BF889585B78F7D85BF8E9958
:10067000F1CF2E5F3F4F2617370708F31196F0E0B2
:10068000AA3ABF07C1F6219680E0CC3AD80771F6A6
:10069000692EF89481E08093BB0078940DC081B5F9
:1006A000806481BD85B7877E85BF85B7806285BF41
:1006B000889585B78F7D85BF8899F1CFDF91CF91E0
:1006C0001F910F910895E82F8091A5009091A600A9
:1006D000009729F49DEC82E398BB88BBFDCF9C0179
:1006E000220F331F97FF04C087E89DE12827392791
:1006F0003093A6002093A500F0E0EE5DFC4FE4915E
:100700008091A5008E23089583E0DDDF9091B700EE
:10071000882319F490FF07C008C0892F8F5F80934A
:10072000B70080FD02C082E0089580E108951F9324
:10073000182F88E0C8DF90E09C01220F331F280F9C
:10074000391F313041F0313018F0323049F406C0F1
:10075000183031F407C0143029F406C0113021F4E8
:1007600088E003C084E001C081E01F910895EF920A
:10077000FF920F931F9386E0A6DF182F85E0A3DF7B
:10078000E82E84E0A0DFF82E83E09DDF082F82E0D2
:100790009ADF1E0D165C1F0D100F810F1F910F9118
:1007A000FF90EF900895CF92DF92EF92FF920F9318
:1007B0001F93C090A20084E086DF182F84E083DFBF
:1007C000D82E83E080DFE82E82E07DDFF82E82E005
:1007D0007ADF082F83E077DF1D0D1C0D1E0D1F0D26
:1007E000100F181B812F1F910F91FF90EF90DF903A
:1007F000CF90089588E067DFE82FF0E074E0F69589
:10080000E7957A95E1F7EE0FFF1FEE57FF4F8081D6
:1008100091810895EF92FF920F931F93CF93DF93EF
:100820001091AE00C091B100D091B200E8E5EE2E7B
:10083000E2E0FE2EF9C0889902C08A9B65C0889BC1
:100840001FC08E991DC0E091B500F091B600808167
:100850009181C817D907A1F00280F381E02DEC0F38
:10086000FD1F2196E4916091C3008E2F90E070E00F
:100870005AD1192FF8949093BC008E9A7894D4C0D2
:100880008A9B28C08F9926C02091AF003091B0007C
:10089000E091B300F091B40080819181281739076D
:1008A000C9F00280F381E02DE20FF31F2F5F3F4F6D
:1008B0003093B0002093AF00E4916091B9008E2F87
:1008C00090E070E030D1192FF8949093BE008F9A89
:1008D0007894AAC0889B0BC08091BB00882339F410
:1008E00062DF182FF8948093BB0078949DC08A9B98
:1008F0000BC08091C000882339F455DF182FF8947D
:100900008093C000789490C088992CC089992AC09F
:100910008E9928C06FDF9093B6008093B500872D25
:1009200006DF682E24DF8093C300E091B500F091CC
:10093000B6000280F381E02DE4916091C3008E2F18
:1009400090E070E0F0D0192F092F8B9B03C0DCDE04
:100950008093C400F8940093BC008E9A7894C1E010
:10096000D0E062C08A9939C08B9937C08F9935C061
:1009700041DF9093B4008093B3001092B0001092C6
:10098000AF00862DD4DE782EF2DE8093B900809100
:10099000AF009091B000E091B300F091B4000280FC
:1009A000F381E02DE80FF91F01969093B00080933A
:1009B000AF00E4916091B9008E2F90E070E0B3D069
:1009C000192F092F899B03C09FDE8093C400F894E0
:1009D0000093BE008F9A789427C08C9B0BC085E053
:1009E00072DE885F8093A200F092A400E092A300E0
:1009F0008C981AC081B5806481BD899B0BC08B9B8C
:100A000009C085B7877E806185BF85B7806285BF55
:100A1000889507C085B7877E85BF85B7806285BF0B
:100A2000889585B78F7D85BF8091BF00882309F0A9
:100A300002CF1093AE00D093B200C093B100DF910B
:100A4000CF911F910F91FF90EF9008950F931F93F7
:100A50002DE088E190E00FB6F894A89581BD0FBE17
:100A600021BD81B5806481BD8FED87BB8DEC88BBD6
:100A700080B5886080BD80B5826080BD80B58160B2
:100A800080BD82E08ABD83BF89E189BD82E090E0BC
:100A900020E80FB6F89426BD86BD0FBE80E189BF61
:100AA00081B5806481BD882477246624552444243C
:100AB0003324222478DE8093BB0075DE8093C0004F
:100AC00011BA1092C20081E08093BF008093BA00F7
:100AD000789499DD1092BA0001E010E10093C20011
:100AE00019BE0EC081B5806481BD85B7877E8061E7
:100AF00085BF85B7806285BF889585B78F7D85BFA7
:100B00008091BF00882371F319BF1092C20088241E
:100B100077246624552444243324222411BA899A44
:100B20008B9A78DEDBCF5527002480FF02C0060EAB
:100B3000571F660F771F6115710521F096958795F0
:0E0B4000009799F7952F802D0895F894FFCF18
:100B4E0013001E00770031006C00A8008200140113
:100B5E00630096018800F9015D0081024400DE0207
:100B6E0060006400680068006C006C006C0070002F
:100B7E007000740074007400780078007C007C00B3
:0E0B8E007C00021E00CE7408040110020A0052
:00000001FF
