:100000000BC225C224C223C222C221C220C21FC2E7
:100010001EC21DC251C21BC21BC219C218C200049B
:1000200009101821292F32312C231A110A05010039
:1000300000021D517B82683F18020101010101018C
:10004000040F1A242E37424F5B666D7379838E98A6
:100050009B978D85838790999E9E9A97969594906D
:100060008B888A919BA1A099908A8B91989C9A9455
:100070008D8A8C9196999998989A9A968E86818471
:100080008E9CA8AAA192837975747473716E6D6A3F
:10009000655C50433A34312E2B27211B16120E0B70
:1000A0000705030101000100011F597E77552A064B
:1000B000010101010101081625334048505C6C7AAA
:1000C0007F7A757C8FA3A79B8B878E96968D838175
:1000D000858B8F92959896908A8A91969389848938
:1000E00099A6A79C94959CA19C938D91989D9C9A70
:1000F0009CA1A1988C8583827C72696667655D523C
:100100004A443F372E26201D19140F0B08060402FF
:10011000010100000219467592906F3D1201010124
:10012000010101010108121C27323C454E555C6358
:10013000696F767E868E959B9FA1A09C98928B86F8
:10014000817E7D7E81868C949BA2A8ABACABA8A35C
:100150009E99959290909294979A9D9E9E9D9A9624
:10016000918D8986858486888B8F93959696938FBB
:100170008A85807B7673716F6D6C6966625C564EA2
:10018000463F37302A25211D191613100D0A070581
:10019000030201010000011B486D79683D11010156
:1001A00001010101010B1522303C464D566373805D
:1001B000878786888D908F8B8A8D93948E837B7EA4
:1001C0008A99A4A6A19C9A9A9997969BA3A9A69866
:1001D000887E808B979C99928C88837B736E6E70DF
:1001E0006E645649413E3C3A342E28231F19140FA1
:1001F0000B0806040201010000011A4974837350C0
:10020000270801010101010101060F1A242F3A46B6
:10021000525B62666A6F7783909A9D99908986890E
:10022000929A9E9C958D898A8F979D9E9B97949676
:100230009A9EA09E99949091939696928C85828393
:10024000878C8F908E8D8D9095999C9D9D9DA0A45F
:10025000A7A7A199918E8F959A9B95897C737074AD
:100260007B8080796E635B58585957534B423932C3
:100270002C26221D1914110D090704030101000188
:100280000002245E82794F1B01010101010105106A
:100290001E2D3B47525E6B7782898E93979A999574
:1002A000908D8D8F8F8C86838791A0ABACA3968D1C
:1002B0008C919798938A8688939FA5A2988C848125
:1002C0008384837F7B7774706960564D453E362DFD
:1002D000261F1B17130E0A06040201010000022A42
:1002E0006379602A0301010101010C19293C4D5673
:1002F0005B647688908F8D92999B99989B9A948D48
:100300008E989F9A8E888D98998F847E7C786F6561
:100310005C53483B312B261E150F0B0805030101CA
:100320000000000103070F1F3F7FFF4A6172206F2B
:10033000662046697265666C6965730A446573690F
:10034000676E20616E6420496D706C696D656E74B6
:100350006174696F6E2062792058616E64657220E5
:10036000487564736F6E20286A61724073796E6F8E
:10037000707469632E6F7267290A49646561206130
:100380006E6420496E737069726174696F6E206269
:1003900079204B61796F626920546965726E657965
:1003A0000A5370656369616C207468616E6B7320B9
:1003B000746F204B6174696520486F726E20666FA0
:1003C000722067657474696E67206D6520746F2094
:1003D0007468696E6B2061626F757420656C65630B
:1003E00074726F6E69637300245265766973696F06
:1003F0006E3A20312E343120242024446174653A31
:1004000020323030372F30312F31302030343A33F2
:10041000353A35352024000011241FBECFE5D1E048
:10042000DEBFCDBF10E0A0E6B0E0E6E5FAE003C035
:10043000C89531960D92AC3AB107D1F710E0ACEA0D
:10044000B0E001C01D92A73BB107E1F7BEC1D8CD16
:100450001F920F920FB60F9211248F939F93899B37
:100460000AC08091AF0081508093AF008091AF00AF
:10047000882309F489988B9B0AC08091B30081502E
:100480008093B3008091B300882309F48B988C99F2
:100490000CC08091A3009091A40001979093A400B8
:1004A0008093A300892B09F48C9A9F918F910F90D0
:1004B0000FBE0F901F9018951F920F920FB60F92BC
:1004C00011248F9388BA8091AD0081508093AD0044
:1004D0008F3F09F046C0889B0FC08E9B05C080915E
:1004E000B000282E8E9811C022248091AF0088235E
:1004F00061F08898899A09C0899907C08E9B05C0C8
:100500008091B000282E8E98889A8A9B0FC08F9B6E
:1005100005C08091B200382E8F9811C0332480918D
:10052000B300882361F08A988B9A09C08B9907C021
:100530008F9B05C08091B200382E8F988A9A889937
:1005400044248A995524889902C08A9B08C08091C6
:10055000B6000F2EFDEE8F2EF02D882A02C08DEEF4
:10056000882E889B0BC0062C27FA420C13F016F03D
:1005700004C01EF00094802001C080288A9B0BC01C
:10058000072C37FA530C13F016F004C01EF0009439
:10059000802001C080288F910F900FBE0F901F9078
:1005A0001895CF93DF934091800050918100F8948B
:1005B00082E08093AF00899A7894CAEAD0E088817B
:1005C0008093B600A7EAB0E06C9020E030E01FC056
:1005D000F52FE42F82819381820F931FF92FE82F4B
:1005E000C895802D8093B0008E9A0DC081B580642F
:1005F00081BD85B7877E85BF85B7806285BF8895B9
:1006000085B78F7D85BF8E99F1CF2E5F3F4FF52F38
:10061000E42F8081918128173907D0F21196F0E0FC
:10062000AA3ABF0789F6219680E0CC3AD80709F0AC
:10063000C6CFF89481E08093AF0078940DC081B567
:10064000806481BD85B7877E85BF85B7806285BFA1
:10065000889585B78F7D85BF8899F1CFDF91CF9140
:100660000895E82F8091A5009091A600009729F4A5
:100670009DEE82E198BB88BBFDCF282F392F220F3A
:10068000331F97FF04C087E89DE12827392730935F
:10069000A6002093A500FF27EE5DFC4FC895E02D36
:1006A0008091A500E8238E2F9927089583E0D9DF54
:1006B0009091AC00882319F490FD0AC006C0892FE0
:1006C0008F5F8093AC0080FD03C082E090E00895CE
:1006D00080E190E008951F93182F88E0C2DF9927EA
:1006E000282F392F220F331F280F391F232F33278D
:1006F000213041F0213018F0223049F406C0183082
:1007000031F407C0143029F406C0113021F488E018
:1007100003C084E001C081E099271F910895EF9202
:10072000FF920F931F9386E09CDF082F85E099DFEF
:10073000E82E84E096DFF82E83E093DF182F82E026
:1007400090DF0E0D080F1F0D165C010F802F9927EB
:100750001F910F91FF90EF900895CF92DF92EF924B
:10076000FF920F931F931091A20084E07ADFC82EAE
:1007700084E077DFD82E83E074DF082F82E071DF1A
:10078000E82E82E06EDFF82E83E06BDF1C0D1E0D7D
:100790000D0D0F0D100F181B812F99271F910F9111
:1007A000FF90EF90DF90CF90089588E05ADFE82F18
:1007B000FF27A4E0F695E795AA95E1F7EE0FFF1F56
:1007C000EE57FF4F808191810895AF92BF92CF92F3
:1007D000DF92EF92FF920F931F93CF93DF9388E105
:1007E00090E02DE00FB6F894A89581BD0FBE21BD15
:1007F00081B5806481BD8FEF87BB8DEE88BB80B5EE
:10080000886080BD80B5826080BD80B5816080BD1C
:1008100082E08ABD83BF89E189BD20E882E090E063
:100820000FB6F89426BD86BD0FBE80E189BF81B5A5
:10083000806481BD8824772466245524442433248D
:10084000222411BA7894ADDE88DF8093AF0085DF73
:100850008093B300899A8B9AAA24BB24CC24DD24EC
:10086000EE24FF24C0E0D0E0889902C08A9B5EC0DD
:10087000889B22C08E9920C0FB2DEA2D808191811A
:10088000E816F906C9F0828193818E0D9F1D0894A8
:10089000E11CF11CF92FE82FC895902D8091B5002F
:1008A000692F77279927C5D0892F9927F8948093A6
:1008B000B0008E9A7894D8CF8A9B20C08F991EC0A2
:1008C000FD2DEC2D80819181C817D907B9F0828167
:1008D00093818C0F9D1F2196F92FE82FC895902D9D
:1008E0008091AE00692F77279927A3D0892F992768
:1008F000F8948093B2008F9A7894B6CF889B0AC000
:100900008091AF00882331F428DFF8948093AF0002
:100910007894AACF8A9B0AC08091B300882331F4CF
:100920001CDFF8948093B30078949ECF88992CC0F4
:1009300089992AC08E9928C038DFA82EB92E872D14
:10094000CADE682EECDE8093B500FB2DEA2D828195
:100950009381F92FE82FC895102D0091B5008B9B3E
:1009600003C0A4DE8093B600F894612F7727802F10
:1009700099275FD0892F99278093B0008E9A789419
:1009800011E0E12EF12C70CF8A9929C08B9927C0F4
:100990008F9925C00ADFC82ED92E862D9CDE782E91
:1009A000BEDE8093AE00DD2DCC2DEA81FB81C895A3
:1009B000102D0091AE00899B03C078DE8093B600B5
:1009C000F894612F7727802F992733D0892F992783
:1009D0008093B2008F9A7894C1E0D0E045CF8C9B91
:1009E0000DC085E03EDE885F8093A20088E592E03E
:1009F0009093A4008093A3008C9836CF81B5806437
:100A000081BD899B0BC08B9B09C085B7877E8061A8
:100A100085BF85B7806285BF889507C085B7877E0B
:100A200085BF85B7806285BF889585B78F7D85BF77
:100A30001BCF5527002480FF02C0060E571F660FEC
:100A4000771F6115710521F096958795009799F7A5
:060A5000952F802D089592
:100A560013001E00770031006C00A800820014010C
:100A6600630096018800F9015D0081024400DE0200
:100A760060006400680068006C006C006C00700028
:100A86007000740074007400780078007C007C00AC
:0C0A96007C00021E00CE74080401100257
:00000001FF
