:100000000BC226C225C224C223C222C221C220C2E0
:100010001FC21EC252C21CC21CC21AC219C2245222
:1000200065766973696F6E3A20312E343120242051
:1000300024446174653A20323030372F30312F310B
:10004000302030343A33353A35352024004A617255
:10005000206F662046697265666C6965730A44653F
:100060007369676E20616E6420496D706C656D65A3
:100070006E746174696F6E2062792058616E646578
:100080007220487564736F6E20286A6172407379BC
:100090006E6F707469632E6F7267290A49646561B7
:1000A00020616E6420496E737069726174696F6E4D
:1000B000206279204B61796F626920546965726EA4
:1000C00065790A5370656369616C207468616E6B51
:1000D0007320746F204B6174696520486F726E20C5
:1000E000666F722067657474696E67206D65207431
:1000F0006F207468696E6B2061626F757420656C27
:10010000656374726F6E69637300000103070F1FEC
:100110003F7FFF022A6379602A0301010101010C7C
:1001200019293C4D565B647688908F8D92999B99E6
:10013000989B9A948D8E989F9A8E888D98998F848B
:100140007E7C786F655C53483B312B261E150F0B68
:100150000805030101000002245E82794F1B0101A2
:100160000101010105101E2D3B47525E6B7782890C
:100170008E93979A9995908D8D8F8F8C868387918A
:10018000A0ABACA3968D8C919798938A8688939F09
:10019000A5A2988C84818384837F7B777470696047
:1001A000564D453E362D261F1B17130E0A06040218
:1001B00001010000011A49748373502708010101ED
:1001C00001010101060F1A242F3A46525B62666A4A
:1001D0006F7783909A9D9990898689929A9E9C9533
:1001E0008D898A8F979D9E9B9794969A9EA09E99A3
:1001F000949091939696928C858283878C8F908E23
:100200008D8D9095999C9D9D9DA0A4A7A7A1999146
:100210008E8F959A9B95897C7370747B8080796EA4
:10022000635B58585957534B4239322C26221D19BB
:1002300014110D090704030101000100011B486DA1
:1002400079683D11010101010101010B1522303CCA
:10025000464D56637380878786888D908F8B8A8DF5
:1002600093948E837B7E8A99A4A6A19C9A9A99974F
:10027000969BA3A9A698887E808B979C99928C8840
:10028000837B736E6E706E645649413E3C3A342EE9
:1002900028231F19140F0B08060402010100000295
:1002A00019467592906F3D12010101010101010192
:1002B00008121C27323C454E555C63696F767E867A
:1002C0008E959B9FA1A09C98928B86817E7D7E813E
:1002D000868C949BA2A8ABACABA8A39E9995929058
:1002E000909294979A9D9E9E9D9A96918D898685CF
:1002F0008486888B8F93959696938F8A85807B765C
:1003000073716F6D6C6966625C564E463F37302A7A
:1003100025211D191613100D0A07050302010100FE
:1003200000011F597E77552A0601010101010108CC
:100330001625334048505C6C7A7F7A757C8FA3A772
:100340009B8B878E96968D8381858B8F92959896C1
:10035000908A8A91969389848999A6A79C94959C62
:10036000A19C938D91989D9C9A9CA1A1988C85832A
:10037000827C72696667655D524A443F372E26204B
:100380001D19140F0B0806040201010000021D5183
:100390007B82683F1802010101010101040F1A2448
:1003A0002E37424F5B666D7379838E989B978D8550
:1003B000838790999E9E9A97969594908B888A9120
:1003C0009BA1A099908A8B91989C9A948D8A8C91EC
:1003D00096999998989A9A968E8681848E9CA8AAC6
:1003E000A192837975747473716E6D6A655C504304
:1003F0003A34312E2B27211B16120E0B0705030151
:1004000001000100000409101821292F32312C238A
:100410001A110A050100000011241FBECFE5D1E02A
:10042000DEBFCDBF10E0A0E6B0E0E4E3FBE003C038
:10043000C89531960D92AA3AB107D1F710E0AAEA11
:10044000B0E001C01D92AE3BB107E1F717D371C315
:10045000D7CD1F920F920FB60F9211248F939F93B7
:10046000899B0AC08091B60081508093B60080912C
:10047000B600882309F489988B9B0AC08091BA0042
:1004800081508093BA008091BA00882309F48B9838
:100490008C990CC0809160009091610001979093BD
:1004A000610080936000892B09F48C9A9F918F9151
:1004B0000F900FBE0F901F9018951F920F920FB6BE
:1004C0000F9211248F939F9388BA8091AA00815034
:1004D0008093AA008F3F09F044C0889B11C081B36C
:1004E000982F907486FF04C02090B7008E9810C09B
:1004F000292E8091B600882359F08898899A08C0DF
:10050000899906C08E9B04C02090B7008E98889A67
:100510008A9B0FC081B3807821F03090B9008F980A
:1005200010C0382E8091BA00882359F08A988B9A8F
:1005300008C08B9906C08F9B04C03090B9008F987B
:100540008A9A889944248A995524889902C08A9B5A
:1005500006C08091BD009DEE892E882A02C08DEED6
:10056000882E889B0BC0062C27FA420C13F016F03D
:1005700004C01EF00094802001C080288A9B0BC01C
:10058000072C37FA530C13F016F004C01EF0009439
:10059000802001C080289F918F910F900FBE0F90F7
:1005A0001F901895EF92FF920F931F93CF93DF93B5
:1005B000CDB7DEB725970FB6F894DEBF0FBECDBF1F
:1005C000409183005091840080E18C8324E0E22EEE
:1005D000F12CEC0EFD1E82E08D830C2F1D2F0F5F82
:1005E0001F4FB12FA02FE5EAF0E083E001900D92BC
:1005F0008150E1F7F89482E08093B600899A78946C
:1006000060E0FF2DEE2DE60FF11D80818093BD008F
:10061000B12FA02F72E06C9020E030E0F52FE42F96
:10062000808191812817390718F5F52FE42F8281F1
:100630009381820F931F2F5F3F4FF92FE82FC895AB
:10064000802D8093B7008E9A8E9B0FC081B58064F9
:1006500081BD85B7877E85BF85B7806285BF889558
:1006600085B78F7D85BF8E99F1CF2F5F3F4FD6CF56
:100670007150119677FFCFCF6F5F623008F4C1CF12
:10068000F89481E08093B6007894889B0FC081B580
:10069000806481BD85B7877E85BF85B7806285BF51
:1006A000889585B78F7D85BF8899F1CF25960FB640
:1006B000F894DEBF0FBECDBFDF91CF911F910F9198
:1006C000FF90EF900895E82F8091A8009091A900E5
:1006D000009729F49DEE82E198BB88BBFDCF282FBF
:1006E000392F220F331F97FF04C087E89DE1282789
:1006F00039273093A9002093A800FF27E65FFE4F1B
:10070000C895902D8091A8008923992708951F935B
:1007100084E0D9DF10916200180F84E0D4DF180F55
:1007200083E0D1DF180F82E0CEDF180F82E0CBDF4D
:10073000180F83E0C8DF181B812F99271F91089598
:100740001F9386E0C0DF182F85E0BDDF180F84E01F
:10075000BADF180F83E0B7DF180F82E0B4DF180F9D
:10076000165C812F99271F910895CF93C82F88E099
:10077000AADF282F3327932F822F880F991F820FEC
:10078000931F892F992799278130910561F0823035
:1007900091051CF4892B21F00CC0029739F009C097
:1007A00088E08C1739F484E08C1721F481E08C17F1
:1007B00009F488E09927CF91089583E084DF909130
:1007C000AB00882329F490FD09C082E090E00895F1
:1007D000892F8F5F8093AB0080FF03C080E190E0A2
:1007E000089582E090E0089588E06DDFE82FFF270C
:1007F00074E0F695E7957A95E1F7EE0FFF1FED5956
:10080000FF4F808191810895889902C08A9B86C09C
:10081000889B31C08E992FC0E091AC00F091AD0063
:100820002091B0003091B100808191812817390763
:1008300011F10280F381E02DE20FF31F2F5F3F4F94
:100840003093B1002093B000C895802D9091BC00EA
:10085000282F3327892F9927732F622F58D1892F5B
:1008600099278093B400F8948091B4008093B700E6
:100870008E9A7894C9CF8A9B31C08F992FC0E0910E
:10088000AE00F091AF002091B2003091B3008081B2
:1008900091812817390711F10280F381E02DE20FD1
:1008A000F31F2F5F3F4F3093B3002093B200C895E2
:1008B000802D9091B500282F3327892F9927732FEA
:1008C000622F25D1892F99278093B400F8948091C5
:1008D000B4008093B9008F9A789496CF889B0EC00D
:1008E0008091B600882351F412DF8093B400F8940D
:1008F0008091B4008093B600789486CF8A9B0EC016
:100900008091BA00882351F402DF8093B400F894F8
:100910008091B4008093BA00789476CF889941C0D2
:1009200089993FC08E993DC05FDF9093AD00809361
:10093000AC001092B1001092B000872D16DF682E27
:10094000FFDE8093BC00E091AC00F091AD0080919F
:10095000B0009091B1000280F381E02DE80FF91F03
:1009600001969093B1008093B000C895802D90912E
:10097000BC00282F3327892F9927732F622FC7D0C8
:10098000892F99278093B4008B9B03C016DF809337
:10099000BD00F8948091B4008093B7008E9A78944B
:1009A00033CF8A9941C08B993FC08F993DC01CDFDE
:1009B0009093AF008093AE001092B3001092B200FB
:1009C000862DD3DE782EBCDE8093B500E091AE009C
:1009D000F091AF008091B2009091B3000280F3815A
:1009E000E02DE80FF91F01969093B3008093B200B9
:1009F000C895802D9091B500282F3327892F9927EE
:100A0000732F622F84D0892F99278093B400899BFC
:100A100003C0D3DE8093BD00F8948091B40080932E
:100A2000B9008F9A7894F0CE8C9B0DC085E04BDE98
:100A3000885F8093620088E592E0909361008093E4
:100A400060008C98E1CE81B5806481BD899B0BC02C
:100A50008B9B09C085B7877E806185BF85B7806223
:100A600085BF889507C085B7877E85BF85B78062BB
:100A700085BF889585B78F7D85BFC6CECFE5D1E090
:100A8000DEBFCDBF88E190E02DE00FB6F894A895C9
:100A900081BD0FBE21BD81B5806481BD8FEF87BB55
:100AA0008DEE88BB80B5886080BD80B5826080BDDA
:100AB00080B5816080BD92E09ABD93BF89E189BD18
:100AC00080E80FB6F89486BD96BD0FBE80E189BF61
:100AD00081B5806481BD8824782C682C582C482CE2
:100AE000382C282C14DE8093B60011DE8093BA00D7
:100AF00011BA789457DD8824782C682C582C482C0F
:100B0000382C282C81BA899A8B9A7EDEF4CF55270F
:100B1000002480FF02C0060E571F660F771F611565
:100B2000710521F096958795009799F7952F802D5F
:040B30000895FFCF56
:100B34001E00029D00990099009500950095009172
:100B44000091008D008D008D00890089008500854D
:100B5400008500A100440013015D0057018800B422
:100B64000163003C0282009F026C00210377008D28
:0A0B74000313000404080401CE740A
:00000001FF
