:100000000BC226C225C224C223C222C221C220C2E0
:100010001FC21EC256C21CC21CC21AC219C224521E
:1000200065766973696F6E3A20312E343120242051
:1000300024446174653A20323030372F30312F310B
:10004000302030343A33353A35352024004A617255
:10005000206F662046697265666C6965730A44653F
:100060007369676E20616E6420496D706C656D65A3
:100070006E746174696F6E2062792058616E646578
:100080007220487564736F6E20286A6172407379BC
:100090006E6F707469632E6F7267290A49646561B7
:1000A00020616E6420496E737069726174696F6E4D
:1000B000206279204B61796F626920546965726EA4
:1000C00065790A5370656369616C207468616E6B51
:1000D0007320746F204B6174696520486F726E20C5
:1000E000666F722067657474696E67206D65207431
:1000F0006F207468696E6B2061626F757420656C27
:10010000656374726F6E69637300000103070F1FEC
:100110003F7FFF022A6379602A0301010101010C7C
:1001200019293C4D565B647688908F8D92999B99E6
:10013000989B9A948D8E989F9A8E888D98998F848B
:100140007E7C786F655C53483B312B261E150F0B68
:100150000805030101000002245E82794F1B0101A2
:100160000101010105101E2D3B47525E6B7782890C
:100170008E93979A9995908D8D8F8F8C868387918A
:10018000A0ABACA3968D8C919798938A8688939F09
:10019000A5A2988C84818384837F7B777470696047
:1001A000564D453E362D261F1B17130E0A06040218
:1001B00001010000011A49748373502708010101ED
:1001C00001010101060F1A242F3A46525B62666A4A
:1001D0006F7783909A9D9990898689929A9E9C9533
:1001E0008D898A8F979D9E9B9794969A9EA09E99A3
:1001F000949091939696928C858283878C8F908E23
:100200008D8D9095999C9D9D9DA0A4A7A7A1999146
:100210008E8F959A9B95897C7370747B8080796EA4
:10022000635B58585957534B4239322C26221D19BB
:1002300014110D090704030101000100011B486DA1
:1002400079683D11010101010101010B1522303CCA
:10025000464D56637380878786888D908F8B8A8DF5
:1002600093948E837B7E8A99A4A6A19C9A9A99974F
:10027000969BA3A9A698887E808B979C99928C8840
:10028000837B736E6E706E645649413E3C3A342EE9
:1002900028231F19140F0B08060402010100000295
:1002A00019467592906F3D12010101010101010192
:1002B00008121C27323C454E555C63696F767E867A
:1002C0008E959B9FA1A09C98928B86817E7D7E813E
:1002D000868C949BA2A8ABACABA8A39E9995929058
:1002E000909294979A9D9E9E9D9A96918D898685CF
:1002F0008486888B8F93959696938F8A85807B765C
:1003000073716F6D6C6966625C564E463F37302A7A
:1003100025211D191613100D0A07050302010100FE
:1003200000011F597E77552A0601010101010108CC
:100330001625334048505C6C7A7F7A757C8FA3A772
:100340009B8B878E96968D8381858B8F92959896C1
:10035000908A8A91969389848999A6A79C94959C62
:10036000A19C938D91989D9C9A9CA1A1988C85832A
:10037000827C72696667655D524A443F372E26204B
:100380001D19140F0B0806040201010000021D5183
:100390007B82683F1802010101010101040F1A2448
:1003A0002E37424F5B666D7379838E989B978D8550
:1003B000838790999E9E9A97969594908B888A9120
:1003C0009BA1A099908A8B91989C9A948D8A8C91EC
:1003D00096999998989A9A968E8681848E9CA8AAC6
:1003E000A192837975747473716E6D6A655C504304
:1003F0003A34312E2B27211B16120E0B0705030151
:1004000001000100000409101821292F32312C238A
:100410001A110A050100000011241FBECFE5D1E02A
:10042000DEBFCDBF10E0A0E6B0E0EAEDFBE003C028
:10043000C89531960D92AC3AB107D1F710E0ACEA0D
:10044000B0E001C01D92A13CB107E1F771D3C4C374
:10045000D7CD1F920F920FB60F9211248F939F93B7
:100460008091BE00882331F5899B0AC08091B80035
:1004700081508093B8008091B800882309F489984E
:100480008B9B0AC08091BC0081508093BC008091FE
:10049000BC00882309F48B988C990CC08091600073
:1004A0009091610001979093610080936000892B87
:1004B00009F48C9A9F918F910F900FBE0F901F900F
:1004C00018951F920F920FB60F9211248F939F933E
:1004D00088BA8091AC0081508093AC008F3F09F0C6
:1004E00044C0889B11C081B3982F907486FF04C0CC
:1004F0002090B9008E9810C0292E8091B8008823D2
:1005000059F08898899A08C0899906C08E9B04C0C2
:100510002090B9008E98889A8A9B0FC081B380780A
:1005200021F03090BB008F9810C0382E8091BC0015
:10053000882359F08A988B9A08C08B9906C08F9BA4
:1005400004C03090BB008F988A9A889944248A9975
:100550005524889902C08A9B06C08091C0009DEEF8
:10056000892E882A02C08DEE882E889B0BC0062C0F
:1005700027FA420C13F016F004C01EF000948020FD
:1005800001C080288A9B0BC0072C37FA530C13F04C
:1005900016F004C01EF00094802001C080289F91B6
:1005A0008F910F900FBE0F901F901895EF92FF92B2
:1005B0000F931F93CF93DF93CDB7DEB725970FB679
:1005C000F894DEBF0FBECDBF4091830050918400F0
:1005D00080E18C8324E0E22EF12CEC0EFD1E82E003
:1005E0008D830C2F1D2F0F5F1F4FB12FA02FE5EA1A
:1005F000F0E083E001900D928150E1F7F89482E001
:100600008093B800899A789460E0FF2DEE2DE60F74
:10061000F11D80818093C000B12FA02F72E06C90FB
:1006200020E030E0F52FE42F8081918128173907F1
:1006300018F5F52FE42F82819381820F931F2F5F8E
:100640003F4FF92FE82FC895802D8093B9008E9ADF
:100650008E9B0FC081B5806481BD85B7877E85BFC5
:1006600085B7806285BF889585B78F7D85BF8E9958
:10067000F1CF2F5F3F4FD6CF7150119677FFCFCF7D
:100680006F5F623008F4C1CFF89481E08093B800C6
:100690007894889B0FC081B5806481BD85B7877EC3
:1006A00085BF85B7806285BF889585B78F7D85BFFB
:1006B0008899F1CF25960FB6F894DEBF0FBECDBF57
:1006C000DF91CF911F910F91FF90EF900895E82F48
:1006D0008091A8009091A900009729F49DEE82E1F5
:1006E00098BB88BBFDCF282F392F220F331F97FFD0
:1006F00004C087E89DE1282739273093A90020937B
:10070000A800FF27E65FFE4FC895902D8091A800B6
:100710008923992708951F9384E0D9DF10916200FF
:10072000180F84E0D4DF180F83E0D1DF180F82E0C8
:10073000CEDF180F82E0CBDF180F83E0C8DF181B75
:10074000812F99271F9108951F9386E0C0DF182FEE
:1007500085E0BDDF180F84E0BADF180F83E0B7DF54
:10076000180F82E0B4DF180F165C812F99271F91B4
:100770000895CF93C82F88E0AADF282F3327932F1F
:10078000822F880F991F820F931F892F99279927EE
:100790008130910561F0823091051CF4892B21F0A4
:1007A0000CC0029739F009C088E08C1739F484E056
:1007B0008C1721F481E08C1709F488E09927CF91F8
:1007C000089583E084DF9091AD00882329F490FDA3
:1007D00009C082E090E00895892F8F5F8093AD007B
:1007E00080FF03C080E190E0089582E090E00895EA
:1007F00088E06DDFE82FFF2774E0F695E7957A959E
:10080000E1F7EE0FFF1FED59FF4F808191810895B1
:1008100090B59E7F90BD806287B93699FECF379A9A
:1008200085B7877E886085BF85B7806285BF8895DC
:1008300085B78F7D85BF95B1379880B5816080BDC4
:10084000892F992708958FE8E3DF992708958FEE80
:1008500087BB8DEF88BB82E0DBDF9DEE98BB8230EB
:1008600068F08091AA0081508093AA008F3F31F4F4
:100870008AE08093AA0081E090E0089580E090E013
:10088000089581E08093BE0019BE0BC085B7877EB6
:10089000806185BF85B7806285BF889585B78F7D6C
:1008A00085BFD5DF882391F380E189BF1092BE0018
:1008B000089539C1889902C08A9B86C0889B31C03F
:1008C0008E992FC0E091AE00F091AF002091B20060
:1008D0003091B300808191812817390711F102808E
:1008E000F381E02DE20FF31F2F5F3F4F3093B300F2
:1008F0002093B200C895802D9091BF00282F3327F8
:10090000892F9927732F622F55D1892F992780938B
:10091000B600F8948091B6008093B9008E9A7894CE
:1009200002C18A9B31C08F992FC0E091B000F09135
:10093000B1002091B4003091B500808191812817D9
:10094000390711F10280F381E02DE20FF31F2F5FD1
:100950003F4F3093B5002093B400C895802D9091FF
:10096000B700282F3327892F9927732F622F22D181
:10097000892F99278093B600F8948091B6008093D0
:10098000BB008F9A7894CFC0889B0EC08091B8002E
:10099000882351F4C0DE8093B600F8948091B600AD
:1009A0008093B8007894BFC08A9B0EC08091BC0031
:1009B000882351F4B0DE8093B600F8948091B6009D
:1009C0008093BC007894AFC0889941C089993FC09A
:1009D0008E993DC00DDF9093AF008093AE001092D2
:1009E000B3001092B200872DC4DE682EADDE809376
:1009F000BF00E091AE00F091AF008091B200909105
:100A0000B3000280F381E02DE80FF91F0196909367
:100A1000B3008093B200C895802D9091BF00282F1D
:100A20003327892F9927732F622FC4D0892F9927B5
:100A30008093B6008B9B03C0C4DE8093C000F89403
:100A40008091B6008093B9008E9A78946CC08A9990
:100A500041C08B993FC08F993DC0CADE9093B100D1
:100A60008093B0001092B5001092B400862D81DE04
:100A7000782E6ADE8093B700E091B000F091B1006B
:100A80008091B4009091B5000280F381E02DE80FD1
:100A9000F91F01969093B5008093B400C895802DFE
:100AA0009091B700282F3327892F9927732F622F12
:100AB00081D0892F99278093B600899B03C081DE5E
:100AC0008093C000F8948091B6008093BB008F9A09
:100AD000789429C08C9B0DC085E0F9DD885F8093F8
:100AE000620088E592E090936100809360008C98AA
:100AF0001AC081B5806481BD899B0BC08B9B09C0E6
:100B000085B7877E806185BF85B7806285BF889500
:100B100007C085B7877E85BF85B7806285BF88950A
:100B200085B78F7D85BF93DE882309F0C3CE0895F6
:100B3000CFE5D1E0DEBFCDBF88E190E02DE00FB67C
:100B4000F894A89581BD0FBE21BD81B5806481BD9B
:100B50008FEF87BB8DEE88BB80B5886080BD80B588
:100B6000826080BD80B5816080BD92E09ABD93BFF8
:100B700089E189BD80E80FB6F89486BD96BD0FBEA9
:100B800080E189BF81B5806481BD8824782C682C80
:100B9000582C482C382C282C81BA789407DDBBDDE2
:100BA0008093B800B8DD8093BC00899A8B9A69DE87
:100BB00080DEFDCF5527002480FF02C0060E571FA0
:100BC000660F771F6115710521F09695879500973F
:0A0BD00099F7952F802D0895FFCFAF
:100BDA001E00029D009900990095009500950091CC
:100BEA000091008D008D008D0089008900850085A7
:100BFA00008500A100440013015D0057018800B47C
:100C0A000163003C0282009F026C00210377008D81
:0C0C1A000313000404080401CE740A0057
:00000001FF
